{
  "contractName": "Voting",
  "abi": [
    {
      "inputs": [
        {
          "internalType": "bytes32[]",
          "name": "candidateNames",
          "type": "bytes32[]"
        }
      ],
      "payable": false,
      "stateMutability": "nonpayable",
      "type": "constructor"
    },
    {
      "constant": true,
      "inputs": [
        {
          "internalType": "uint256",
          "name": "",
          "type": "uint256"
        }
      ],
      "name": "candidateList",
      "outputs": [
        {
          "internalType": "bytes32",
          "name": "",
          "type": "bytes32"
        }
      ],
      "payable": false,
      "stateMutability": "view",
      "type": "function"
    },
    {
      "constant": true,
      "inputs": [
        {
          "internalType": "bytes32",
          "name": "",
          "type": "bytes32"
        }
      ],
      "name": "votesReceived",
      "outputs": [
        {
          "internalType": "uint256",
          "name": "",
          "type": "uint256"
        }
      ],
      "payable": false,
      "stateMutability": "view",
      "type": "function"
    },
    {
      "constant": true,
      "inputs": [
        {
          "internalType": "bytes32",
          "name": "candidate",
          "type": "bytes32"
        }
      ],
      "name": "totalVotesFor",
      "outputs": [
        {
          "internalType": "uint256",
          "name": "",
          "type": "uint256"
        }
      ],
      "payable": false,
      "stateMutability": "view",
      "type": "function"
    },
    {
      "constant": false,
      "inputs": [
        {
          "internalType": "bytes32",
          "name": "candidate",
          "type": "bytes32"
        }
      ],
      "name": "voteForCandidate",
      "outputs": [],
      "payable": false,
      "stateMutability": "nonpayable",
      "type": "function"
    },
    {
      "constant": true,
      "inputs": [
        {
          "internalType": "bytes32",
          "name": "candidate",
          "type": "bytes32"
        }
      ],
      "name": "validCandidate",
      "outputs": [
        {
          "internalType": "bool",
          "name": "",
          "type": "bool"
        }
      ],
      "payable": false,
      "stateMutability": "view",
      "type": "function"
    },
    {
      "constant": true,
      "inputs": [],
      "name": "getCandidates",
      "outputs": [
        {
          "internalType": "bytes32[]",
          "name": "",
          "type": "bytes32[]"
        }
      ],
      "payable": false,
      "stateMutability": "view",
      "type": "function"
    }
  ],
  "bytecode": "0x608060405234801561001057600080fd5b506040516104e83803806104e88339818101604052602081101561003357600080fd5b810190808051604051939291908464010000000082111561005357600080fd5b8382019150602082018581111561006957600080fd5b825186602082028301116401000000008211171561008657600080fd5b8083526020830192505050908051906020019060200280838360005b838110156100bd5780820151818401526020810190506100a2565b5050505090500160405250505080600190805190602001906100e09291906100e7565b5050610159565b828054828255906000526020600020908101928215610123579160200282015b82811115610122578251825591602001919060010190610107565b5b5090506101309190610134565b5090565b61015691905b8082111561015257600081600090555060010161013a565b5090565b90565b610380806101686000396000f3fe608060405234801561001057600080fd5b50600436106100625760003560e01c806306a49fce146100675780632f265cf7146100c6578063392e6678146101085780637021939f1461014e578063b13c744b14610190578063cc9ab267146101d2575b600080fd5b61006f610200565b6040518080602001828103825283818151815260200191508051906020019060200280838360005b838110156100b2578082015181840152602081019050610097565b505050509050019250505060405180910390f35b6100f2600480360360208110156100dc57600080fd5b8101908080359060200190929190505050610258565b6040518082815260200191505060405180910390f35b6101346004803603602081101561011e57600080fd5b8101908080359060200190929190505050610286565b604051808215151515815260200191505060405180910390f35b61017a6004803603602081101561016457600080fd5b81019080803590602001909291905050506102dc565b6040518082815260200191505060405180910390f35b6101bc600480360360208110156101a657600080fd5b81019080803590602001909291905050506102f4565b6040518082815260200191505060405180910390f35b6101fe600480360360208110156101e857600080fd5b8101908080359060200190929190505050610315565b005b6060600180548060200260200160405190810160405280929190818152602001828054801561024e57602002820191906000526020600020905b81548152602001906001019080831161023a575b5050505050905090565b600061026382610286565b61026c57600080fd5b600080838152602001908152602001600020549050919050565b600080600090505b6001805490508110156102d15782600182815481106102a957fe5b906000526020600020015414156102c45760019150506102d7565b808060010191505061028e565b50600090505b919050565b60006020528060005260406000206000915090505481565b6001818154811061030157fe5b906000526020600020016000915090505481565b61031e81610286565b61032757600080fd5b6001600080838152602001908152602001600020600082825401925050819055505056fea265627a7a723158207b4cfc2a23dd56869f00afbafcb6ad7d9b7d2020dd7416b12ca3c19bcefa8d7b64736f6c63430005100032",
  "source": "pragma solidity >=0.4.22 <0.8.0;\r\n\r\ncontract Voting {\r\n  \r\n  mapping (bytes32 => uint256) public votesReceived;\r\n  \r\n  bytes32[] public candidateList;\r\n\r\n  constructor(bytes32[] memory candidateNames) public {\r\n    candidateList = candidateNames;\r\n  }\r\n\r\n  function totalVotesFor(bytes32 candidate) view public returns (uint256) {\r\n    require(validCandidate(candidate));\r\n    return votesReceived[candidate];\r\n  }\r\n\r\n  function voteForCandidate(bytes32 candidate) public {\r\n    require(validCandidate(candidate));\r\n    votesReceived[candidate] += 1;\r\n  }\r\n\r\n  function validCandidate(bytes32 candidate) view public returns (bool) {\r\n    for(uint i = 0; i < candidateList.length; i++) {\r\n      if (candidateList[i] == candidate) {\r\n        return true;\r\n      }\r\n    }\r\n    return false;\r\n  }\r\n\r\n  function getCandidates () public view returns (bytes32 [] memory) {\r\n      return candidateList;\r\n  }\r\n}",
  "sourcePath": "C:\\Users\\Akash Vijayan\\Desktop\\Voting_Dapp\\contracts\\voting.sol",
  "compiler": {
    "name": "solc",
    "version": "0.5.16+commit.9c3226ce.Emscripten.clang"
  },
  "schemaVersion": "3.1.0",
  "updatedAt": "2020-09-05T15:14:01.343Z",
  "devdoc": {
    "methods": {}
  },
  "userdoc": {
    "methods": {}
  }
}